{
  "_format": "hh-sol-artifact-1",
  "contractName": "Token",
  "sourceName": "Contracts/Token.sol",
  "abi": [
    {
      "inputs": [],
      "stateMutability": "nonpayable",
      "type": "constructor"
    },
    {
      "inputs": [
        {
          "internalType": "address",
          "name": "account",
          "type": "address"
        }
      ],
      "name": "checkBalance",
      "outputs": [
        {
          "internalType": "uint256",
          "name": "",
          "type": "uint256"
        }
      ],
      "stateMutability": "view",
      "type": "function"
    },
    {
      "inputs": [],
      "name": "name",
      "outputs": [
        {
          "internalType": "string",
          "name": "",
          "type": "string"
        }
      ],
      "stateMutability": "view",
      "type": "function"
    },
    {
      "inputs": [],
      "name": "owner",
      "outputs": [
        {
          "internalType": "address",
          "name": "",
          "type": "address"
        }
      ],
      "stateMutability": "view",
      "type": "function"
    },
    {
      "inputs": [],
      "name": "symbol",
      "outputs": [
        {
          "internalType": "string",
          "name": "",
          "type": "string"
        }
      ],
      "stateMutability": "view",
      "type": "function"
    },
    {
      "inputs": [],
      "name": "totalSupply",
      "outputs": [
        {
          "internalType": "uint256",
          "name": "",
          "type": "uint256"
        }
      ],
      "stateMutability": "view",
      "type": "function"
    },
    {
      "inputs": [
        {
          "internalType": "address",
          "name": "to",
          "type": "address"
        },
        {
          "internalType": "uint256",
          "name": "ammount",
          "type": "uint256"
        }
      ],
      "name": "transfer",
      "outputs": [],
      "stateMutability": "nonpayable",
      "type": "function"
    }
  ],
  "bytecode": "0x60806040526040518060400160405280600d81526020017f4861726468617420746f6b656e000000000000000000000000000000000000008152506000908051906020019061004f92919061013b565b506040518060400160405280600381526020017f48485400000000000000000000000000000000000000000000000000000000008152506001908051906020019061009b92919061013b565b50614e206002553480156100ae57600080fd5b5033600360006101000a81548173ffffffffffffffffffffffffffffffffffffffff021916908373ffffffffffffffffffffffffffffffffffffffff160217905550600254600460003373ffffffffffffffffffffffffffffffffffffffff1673ffffffffffffffffffffffffffffffffffffffff1681526020019081526020016000208190555061023f565b8280546101479061020d565b90600052602060002090601f01602090048101928261016957600085556101b0565b82601f1061018257805160ff19168380011785556101b0565b828001600101855582156101b0579182015b828111156101af578251825591602001919060010190610194565b5b5090506101bd91906101c1565b5090565b5b808211156101da5760008160009055506001016101c2565b5090565b7f4e487b7100000000000000000000000000000000000000000000000000000000600052602260045260246000fd5b6000600282049050600182168061022557607f821691505b60208210811415610239576102386101de565b5b50919050565b6108f38061024e6000396000f3fe608060405234801561001057600080fd5b50600436106100625760003560e01c806306fdde031461006757806318160ddd146100855780635f515226146100a35780638da5cb5b146100d357806395d89b41146100f1578063a9059cbb1461010f575b600080fd5b61006f61012b565b60405161007c919061058b565b60405180910390f35b61008d6101b9565b60405161009a91906105c6565b60405180910390f35b6100bd60048036038101906100b89190610644565b6101bf565b6040516100ca91906105c6565b60405180910390f35b6100db610247565b6040516100e89190610680565b60405180910390f35b6100f961026d565b604051610106919061058b565b60405180910390f35b610129600480360381019061012491906106c7565b6102fb565b005b6000805461013890610736565b80601f016020809104026020016040519081016040528092919081815260200182805461016490610736565b80156101b15780601f10610186576101008083540402835291602001916101b1565b820191906000526020600020905b81548152906001019060200180831161019457829003601f168201915b505050505081565b60025481565b60006102006040518060400160405280601081526020017f636865636b696e672062616c616e6365000000000000000000000000000000008152508361042d565b600460008373ffffffffffffffffffffffffffffffffffffffff1673ffffffffffffffffffffffffffffffffffffffff168152602001908152602001600020549050919050565b600360009054906101000a900473ffffffffffffffffffffffffffffffffffffffff1681565b6001805461027a90610736565b80601f01602080910402602001604051908101604052809291908181526020018280546102a690610736565b80156102f35780601f106102c8576101008083540402835291602001916102f3565b820191906000526020600020905b8154815290600101906020018083116102d657829003601f168201915b505050505081565b80600460003373ffffffffffffffffffffffffffffffffffffffff1673ffffffffffffffffffffffffffffffffffffffff16815260200190815260200160002054101561037d576040517f08c379a0000000000000000000000000000000000000000000000000000000008152600401610374906107b4565b60405180910390fd5b80600460003373ffffffffffffffffffffffffffffffffffffffff1673ffffffffffffffffffffffffffffffffffffffff16815260200190815260200160002060008282546103cc9190610803565b9250508190555080600460008473ffffffffffffffffffffffffffffffffffffffff1673ffffffffffffffffffffffffffffffffffffffff16815260200190815260200160002060008282546104229190610837565b925050819055505050565b6104c5828260405160240161044392919061088d565b6040516020818303038152906040527f319af333000000000000000000000000000000000000000000000000000000007bffffffffffffffffffffffffffffffffffffffffffffffffffffffff19166020820180517bffffffffffffffffffffffffffffffffffffffffffffffffffffffff83818316178352505050506104c9565b5050565b60008151905060006a636f6e736f6c652e6c6f679050602083016000808483855afa5050505050565b600081519050919050565b600082825260208201905092915050565b60005b8381101561052c578082015181840152602081019050610511565b8381111561053b576000848401525b50505050565b6000601f19601f8301169050919050565b600061055d826104f2565b61056781856104fd565b935061057781856020860161050e565b61058081610541565b840191505092915050565b600060208201905081810360008301526105a58184610552565b905092915050565b6000819050919050565b6105c0816105ad565b82525050565b60006020820190506105db60008301846105b7565b92915050565b600080fd5b600073ffffffffffffffffffffffffffffffffffffffff82169050919050565b6000610611826105e6565b9050919050565b61062181610606565b811461062c57600080fd5b50565b60008135905061063e81610618565b92915050565b60006020828403121561065a576106596105e1565b5b60006106688482850161062f565b91505092915050565b61067a81610606565b82525050565b60006020820190506106956000830184610671565b92915050565b6106a4816105ad565b81146106af57600080fd5b50565b6000813590506106c18161069b565b92915050565b600080604083850312156106de576106dd6105e1565b5b60006106ec8582860161062f565b92505060206106fd858286016106b2565b9150509250929050565b7f4e487b7100000000000000000000000000000000000000000000000000000000600052602260045260246000fd5b6000600282049050600182168061074e57607f821691505b6020821081141561076257610761610707565b5b50919050565b7f6e6f7420656e6f7567682062616c616e63650000000000000000000000000000600082015250565b600061079e6012836104fd565b91506107a982610768565b602082019050919050565b600060208201905081810360008301526107cd81610791565b9050919050565b7f4e487b7100000000000000000000000000000000000000000000000000000000600052601160045260246000fd5b600061080e826105ad565b9150610819836105ad565b92508282101561082c5761082b6107d4565b5b828203905092915050565b6000610842826105ad565b915061084d836105ad565b9250827fffffffffffffffffffffffffffffffffffffffffffffffffffffffffffffffff03821115610882576108816107d4565b5b828201905092915050565b600060408201905081810360008301526108a78185610552565b90506108b66020830184610671565b939250505056fea2646970667358221220ad9d4e9ff565d2e44c8c2b7116611aece4992f33acd3efb3ef4137a18c37d25164736f6c63430008090033",
  "linkReferences": {},
  "deployedLinkReferences": {}
}